S01900004F42435F4D43425F70726F746F747970652E73726563B1
S385000100000070002011040100790401007904010079040100790401007904010000000000000000000000000000000000511B01007904010000000000E11B0100451C0100FD7A0100057B01000D7B0100157B01001D7B0100257B01002D7B0100357B01003D7B0100457B01004D7B0100557B01005D7B0100657B01006D7B0100757B0100C4
S385000100807D7B0100790401007904010079040100790401007904010079040100790401007904010079040100114C0100194C0100214C010079040100790401007904010079040100790401007904010079040100790401007904010079040100B9410100C14101007904010079040100790401007904010079040100790401007904010004
S3850001010079040100790401007904010079040100790401007904010079040100790401007904010079040100790401007904010079040100790401007904010079040100790401007904010079040100790401007904010079040100790401007904010079040100790401007904010079040100790401007904010041660100496601005C
S3850001018051660100596601006166010079040100790401006966010071660100790401007966010079040100790401007904010081660100896601007904010091660100790401007904010079040100A158010031590100BD590100495A01007904010079040100D55A0100655B0100F15B01007D5C01007904010079040100095D0100BD
S38500010200995D0100255E0100B15E010079040100790401003D5F0100CD5F010059600100E56001007904010079040100790401007904010079040100790401007904010079040100790401007904010079040100790401007904010079040100790401007904010079040100790401007904010079040100790401007904010079040100D4
S38500010280790401007904010079040100790401007904010079040100790401007904010079040100790401007904010079040100790401007904010079040100790401007904010079040100790401007904010079040100790401007904010079040100790401007904010079040100790401007904010079040100790401007904010037
S385000103007904010079040100790401007904010079040100790401007904010079040100790401007904010079040100790401007904010079040100790401007904010079040100790401007904010079040100790401007904010079040100790401007904010079040100790401007904010079040100790401007904010079040100B6
S3850001038079040100790401007904010079040100790401007904010079040100790401007904010079040100790401007904010079040100790401007904010079040100790401007904010079040100790401007904010079040100790401007904010079040100790401007904010079040100790401007904010079040100FFFFFFFFB8
S31500010400FFFFFFFFFFFFFFFFFFFFFFFFFE7FFFFF76
S3850001041072B64FF000014FF000024FF000034FF000044FF000054FF000064FF00007B846B946BA46BB46BC460A490B4A521A013A05DD0020042308601944043AFBDA07488546074880470748804762B600F0ACF9FEE700000080FF1F0070002000700020A59F0100099F0100FFF7FEBF53B94AB9002908BF00281CBF4FF0FF314FF0FF3002
S3850001049000F07EB9ADF1080C6DE904CE00F006F8DDF804E0DDE9022304B070472DE9F047089D04468E46002B4ED18A4294466DD9B2FA82F757B1C7F1200EB94020FA0EFE02FA07FC4EEA010E00FA07F44FEA1C49210CBEFBF9F61FFA8CF809FB16EE41EA0E4106FB08F38B420AD91CEB010106F1FF3280F027818B4240F22481023E614424
S38500010510C91AA4B2B1FBF9F009FB101144EA014400FB08F8A0450AD91CEB040400F1FF3380F00E81A04540F20B810238644440EA0640A4EB080400267DB1FC4000232C606B603146BDE8F0878B4209D9002D00F01481002685E8030030463146BDE8F087B3FA83F6002E40F090808B4202D3824200F2FD80841A61EB030101208E46002D64
S38500010590EBD085E810403146BDE8F0871AB94FF0010CBCFBF2FCBCFA8CF7A7BBA1EB0C034FEA1C421FFA8CF80126B3FBF2FE210C02FB1E3341EA034108FB0EF38B4208D91CEB01010EF1FF3002D28B4200F2D1808646C91AA3B2B1FBF2F002FB101143EA014408FB00F8A04508D91CEB040400F1FF3302D2A04500F2B7801846A4EB08043F
S3850001061040EA0E4098E7C7F1200301FA07F40CFA07FC20FA03FED9404FEA1C424EEA040EB1FBF2F64FEA1E4302FB16111FFA8CF843EA014306FB08F1994200FA07F40AD91CEB030306F1FF3080F08C80994240F28980023E63445B1A1FFA8EF1B3FBF2F002FB103341EA034100FB08F38B4208D91CEB010100F1FF3E70D28B426ED902380D
S385000106906144CB1A40EA06468FE7C6F1200722FA07F8B34001FA06F448EA030320FA07FC4FEA134EF9404CEA040CB1FBFEF94FEA1C440EFB19111FFA83F844EA014109FB08F48C4202FA06F200FA06FA08D9591809F1FF3044D28C4242D9A9F102091944091B1FFA8CFCB1FBFEF00EFB10114CEA014400FB08F8A04507D91C1900F1FF3159
S385000107102AD2A04528D902381C4440EA0940A4EB0804A0FB02894C45C446494616D313D055B1BAEB0C0364EB010404FA07F7F3401F43F4402F606C6000263146BDE8F0871846F4E61646DBE6C245E9D2B8EB020C69EB03010138E3E70846D6E7704690E78146BDE7064676E70238644446E7304605E7AEF1020E61442BE72E462846ECE6DB
S38500010790704700BF0149024803F050B81098FF1F043C00204FF0100383F31188BFF36F8FBFF34F8FFEE700BF10B5002384B04B4A4B48012108F064FE0021084608F06EFE4849102003F0E4FD09220D21464803F0F1FD4649464803F033F94649464803F02FF900F09BF94549454803F085FB4549454803F081FB454A4549022005F01AFE26
S385000108104FF48031434803F0E1FD4FF480314148022403F0DDFDFFF7B5FF3F4A3F4B02920193C82200233E4900943E4801F006FE3D4A3E4B02920193C82200233C4900943C4801F0FBFD3C4A3C4B02920193C82200233B4900943B4801F0F0FD3A4A3B4B02920193C822002339490094394801F0E5FD394A394B02920193C822002338492D
S385000108900094384801F0DAFD374A384B02920193C822002336490094364801F0CFFD364A364B02920193C822002335490094354801F0C4FD344A354B02920193C822002333490094334801F0B9FD01F0E5FD324A1368002BFCD0106804B010BD0C3C0020409AFF1F1C98FF1F00B00440CCA3010000A4010090A30100C4A301005CA4010010
S3850001091068A4010028A4010034A40100103C00209C99FF1FC0F00F4004190020040000208CA00100150E0100441A0020840C002090A0010095140100F41900206409002094A00100A1180100541900202403002098A00100850C0100A419002044060020A0A00100D90B0100941A0020A40F0020A8A0010021120100E41A0020C41200204D
S38500010990ACA00100F5100100341B0020E4150020B0A00100AD0F0100000000200379002B5FD0006800285AD02DE9F047013BDBB25C2603FB066682B0D1F804C0064402E05C30864245D043686345F9D191F84830082BF5D1CF688C6890F858508DE89000002DEDD0426DC2B3013DEDB20135C5EBC50502EBC50592F81FE0937F7344DBB249
S38500010A10C3F14003A3F1200A07FA03F8C3F1200904FA0AFACEF1400E24FA09F948EA0A0848EA090804FA03F3CEF1200923FA0EF308FA09F9AEF1200E43EA090328FA0EFE43EA0E0313623832AA42D4D15C308642B9D1002002B0BDE8F0870220FAE7012070470020704700BF2DE9F04F83B090F858300021824600910191002B3CD003F12F
S38500010A90FF385FFA88F808F10108D0F854B0DFF88890C8EBC8080E460F460BEBC80819E000209BF81E20A2F1200C00FA02F503FA0CFCC2F1200145EA0C0523FA01F10D4303FA02F40BF1380B26432F43C345CDE9006711D04946584609F08BFADBF820300028DDD10133102B05BF0346CBF82000CBF820301846D4E79AF848203AB1013AAC
S38500010B10D2B201320AF10800694609F061FA002003B0BDE8F08F00BFB4A00100264A27482DE9F0470F211746064603F015F8DFF894A04FF00109B9F1010F35D09AF80480DAF80040B8F1000F17D0002594F85230012B3A46304615D0636894F84C1003F037F80135224694F84C10304603F0B2F8EBB2984504F15C04E8D8B9F1020F0ED1E6
S38500010B90BDE8F08794F84C10013502F0E5FFEBB2434504F15C04D9D3B9F1020FF0D009F101095FFA89F9C6E7054B93F804801C68B8F1000FC9D1F2E7841B002000A40100E891FF1FB884FF1F2DE9F04F83B001F0BBFC0DF1080ADFF894B04AF8040DDFF89090214D4FF00108B8F1010F30D099F80470D9F800400FB3002605E00136F3B26B
S38500010C109F4204F15C0419D994F85230012BF5D12046FFF729FF224694F84C10284603F01BF894F84C10284603F078F80228F8D00136F3B29F4204F15C04E5D8B8F1020F0DD008F101085FFA88F8B8F1010FCED19BF80470DBF80040002FCDD1F1E76421504601F095FDBDE700A40100E891FF1FB884FF1F2DE9F04F85B001F065FCDFF85F
S38500010C90D0B0DFF8D0A0DFF8D080019002AF4FF00109B9F1010F4AD02C4B93E8030087E803009DF80C30002B37D000242646029814E0B1F84E20B1F85050013292B2AAFB05CEB2EB1E1F88BF0135A1F84E2088BFA1F84E500134E4B2A3421ED904EB4405C4EBC505AD00411991F85220012AF1D04A68002ADDD03846FFF750FE029A2A4442
S38500010D10404692F84C105660A2F84E6002F0E2FF02989DF80C304119CBE7B9F1020F0FD009F101095FFA89F9B9F1010FB4D19BE8030087E803009DF80C30002BB5D1EFE7142101A801F024FDA1E700BFB884FF1FE891FF1FCDCCCCCC00A4010010B54FF4803104460C4803F035FB0C4B0C490D4AA0881B7809781060126813FB01F3013BC1
S38500010D90934200D010BD0A220021074803F042F9064B01221A7010BDC0F00F408B1B00208C1B0020901B002068A401008A1B002010B54FF4803104460C4803F00BFB0C4B0C490D4AA0881B7809781060126813FB01F3013B934200D010BD0A220021074803F018F9064B01221A7010BDC0F00F40961B0020971B0020981B002034A40100CA
S38500010E10951B00202DE9804885B001F09DFB04AB4B4A4C4D12684C4F567A2E7019464B4B41F8040D1B684A4C01914A4D117A39701A7A49485B7A2A700021237003F0AEF800214648DFF844B1454D464F464C474EDFF83C81DFF83CA1DFF83C9103F09EF8434B1B78002B5ED0424B1B78002B5AD02B68354B93F800C04FF000038BF8003079
S38500010E9000231A46511C02EB0C0034F8111034F8122026F81310296827F81320C2B201338A42DBB2EED9D8F800302A4B93F800C000231A4602EB0C00D8F8001039F812202AF81320C2B201338A42DBB2F2D928494FF000000870284901980A70274A1370244B4FF000021A70254B4FF0010C83F800C0244B642183F800C001F049FC204B1A
S38500010F1015484FF0000200211A7003F047F81D4B12484FF0000200211A7003F03FF8144B1B78002BA0D19BF80030FA2B03D9164A0223137094E701338BF8003090E700BF5CA401008C1B00208B1B002028A40100971B0020961B002068A4010034A40100901B0020541C0020AC3C0020001C00208A1B0020951B00209E1B00209D1B00204C
S38500010F90891B0020941B00200084FF1F9C1B0020981B0020AC1B0020843C00202DE9804885B001F0D1FA454CDFF82091444DDFF82081444FDFF81CB103904FF4C85A684600F056FABDF804300098A380206000F04FFCC0F30723A9F80000042B04D8DFE803F0655D55450300002300202B808446D8F800203968D2F8B060D2F8D83230629C
S38500011010486DD3F80061C0F8C860D3F83861C0F80061D1F80CE1D1F86801D3F8381101FB0CFC2949A1FB0C61D0F800614FEA511CD3F8C810BCFBF1F1D2F80CC1D2F87C22B14228BF3146CCF8C810D2F8C820CEF8C820D0F83821CCF80021D3F8C830CEF80031142103A801F093FBA8E74FF4C850A5F800A00246DC4663889A42B8D94FF002
S38500011090620C18462B800CFB03FCB1E74FF4486318462B801A46DFF840C0EDE74FF4C86318462B801A46DFF834C0E5E74FF47A7318462B801A46DFF828C0DDE7A41B0020AA1B0020E891FF1F1F85EB51A01B0020B884FF1F0092090000C9040080640200D07E01002DE9F04F87B001F02DFA06AE404C46F80C0D0023DFF800913E4DDFF803
S385000111100081237002274FF0010A44E0D2F8A831012B48D0D2F8E031012B44D0D2F81832012B40D0D2F85032012B3CD0D2F8C830012B5AD0D2F80031012B56D0D2F83831A3F1010BBBFA8BFB4FEA5B1B04A800F08FF99DF81030019300F08AFB019BADF80800032B2DD12B6884F800A0013341F64B5293422B603AD941F64C532B6027701C
S385000111900223D8F80020D2F80C211421C2F8A831304601F0FDFAD9F80030D3F82022D2F87031012BB2D104A800F062F99DF810B000F05EFBBBF1030FADF8080011D04FF0020B9DF80830032B14BF5B464BF001039A0706D413F00103C5D12B6023702378CFE7002327702B60F9E79B46AEE70123C7E700BFC01B0020C41B0020B884FF1F9C
S38500011210E891FF1F014B1878704700BFC01B00202DE9804885B001F097F97E4C7E4D7F4FDFF800827E4E01904FF001092378062B00F2B280DFE803F0B28667A54B1F04002968D1F8683193F8C830002B00F0B2803268282A4FF0060340F2D9801846002232602070D1F80C2101A86421C2F8E03101F08EFADAE700F0FBFAADF8000002A8A0
S3850001129000F0F6F8FFF7BEFF2968002800F08B809DF80030002B00F086809DF80830002B00F08180D1F8683193F8C830042B00F09880D8F8003040F2DC52934200F291805A1C0523C8F800201A462270CAE700F0CFFAADF8000002A800F0CAF8FFF792FF9DF80030296853B1D1F868219DF80830D2F8C8201BB110B9D2B2022A7ED001232B
S385000113101A462270AEE700F0B3FAADF8000002A800F0AEF8FFF776FF9DF800302968002BEDD0D1F868219DF80830D2F8C820002BE5D00028E3D1D2B2012AE0D102231A4622708FE700F094FA824602A8ADF800A000F08EF89DF808B0FFF754FF29685FFA8AFAD1F86831BAF1020F93F8C8302BD0042B23D03A7801231A443A701A462270ED
S3850001139070E700F075FAADF8000002A800F070F8FFF738FF02232370296863E784F80090296801235EE700220123C8F800201A46227057E701231A46184651E7002206233A701A4622704DE7BBF1010FD0D178B9012B17D0022BCBD104231A463870227040E700220623C8F800201A46227039E7002205233A701A46227033E704231A4612
S3850001141022702FE752465346387022702AE70132184625E7D41B0020E891FF1FCC1B0020C81B0020D01B002038B50D4B0D4C1A7825780AB9092D07D90A2D00D038BD002201212270197038BD074B0220197804F06FF92378054A0133237022F8150038BDE81B0020511C0020501C0020EC1B0020034A03469188106818609980184670477D
S38500011490D81B00202DE9F04F87B001F05DF806AB8B4943F8040D01934B688A4A1B781370022003F0F5FF022005F070F8864B874D1860DFF83492DFF834B2DFF83482DFF834A2834E0023039302931C461F46814B1B7813B38049002231F8023F502B9ABF002300200120234402448D429CB2D2B2F2D194FBF2F2A2F6FF339BB240F2193106
S385000115108B4200F2AF80DBF80030744A1770D3F80C210123136289F8003098F80030002B00F084806E4B8AF800701B78002B40F0B080328892B2002A00F0B08031884FF0020C89B20122708880B218B17088624611FA80F1B08880B220B1B0880132D2B211FA80F1F08880B220B1F0880132D2B211FA80F1308980B220B130890132D2B281
S3850001159011FA80F1708980B220B170890132D2B211FA80F1B08980B220B1B0890132D2B211FA80F1F08980B220B1F0890132D2B211FA80F1308A80B220B1308A0132D2B211FA80F1708A80B220B1708A0132D2B211FA80F1B1FBF2F23B4990B2414A0968B1FBF0F189B203901180A1F2CA313C2929D8029A033A92B25E2A24D8042A00F299
S38500011610D980022289F804200BB3012B00F0E780DBF80030029AD3F80C3188F80070C3F838216421019801F0B3F850E79AF80020042A2AD9DBF8002089F80430D2F80C21C2F83831EDE789F80470002BDDD11D49012306220978022004F074F8204A01231370D5E76FF4E363D3189BB240F21A318B4218D8DBF80030184A1770D3F80C218C
S385000116900223136289F8003047E701328AF80020C7E7012B30D0134A1188A6E71A464FF0010C19464FE7512A00F28C80DBF800300A4AD3F80C3189F8007017701F622CE7C099FF1F501C0020E41B00204E1C0020EC1B0020891B0020FE1B0020E01B0020DE1B0020E21B0020D81B0020E891FF1FE81B0020DF1B0020328892B2002A77D08C
S3850001171031881A4689B24FF0020C708880B218B17088624611FA80F1B08880B220B1B0880132D2B211FA80F1F08880B220B1F0880132D2B211FA80F1308980B220B130890132D2B211FA80F1708980B220B170890132D2B211FA80F1B08980B220B1B0890132D2B211FA80F1F08980B220B1F0890132D2B211FA80F1308A80B220B1308ABF
S385000117900132D2B211FA80F1708A80B220B1708A0132D2B211FA80F1B1FBF2F26420304992B200FB02F2039892FBF0F292B2098802921AE7029A5B3A062A1CD8032289F8042021E7274B1B78042B26D9DBF80030D3F80C210323136289F800309DE6224904220978022003F0ADFF204B1F700FE711469C4689E7029A0121083A8A4289F864
S38500011810041024D90299A1F10A024A2A09D8C1EB01129200A9F80220F6E6124A013313707BE6A1F15602042A3FF6EEAEA1F14002FA2101FB02F141F69C0081420CDCC2EB421102EB81025200A9F80220DCE64FF41672A9F80220D7E6A9F80200D4E600BFE21B0020E01B0020501C0020DE1B0020064B1B880020DAB262F30700C3F30723A2
S3850001189063F30F2082B002B0704700BF0484FF1F2DE9F04F83B000F057FE02AC4A4D44F8040DDFF834B1494E494FDFF83081DFF830914FF0040A2B78BBB1464B002133F8020F9B450144FAD1A9FB0131C1F34F11A1F57F63102B0DD8D8F80030D3F80C110023C1F8703133703B706421204600F04FFFE0E7A1F639434A2B0AD8D8F8003019
S38500011910D3F80C0100210123C0F8703133703970EBE76FF43673CB18182B0BD8D8F80030D3F80C0100210223C0F870A1337073703970DAE7A1F68913202B0BD8D8F80030D3F80C0102210023C0F87011317073703B70CAE7A1F26663292B0FD8D8F80030D3F80C21022001214FF0000C0323C2F870313070717087F800C0B6E7A1F5B8717D
S3850001199008290ED8D8F800304FF00302D3F80C017270022105220023C0F8702131703B70A3E73B78042B0CD9D8F8003086F801A0D3F80C314FF0030206213270C3F8701193E701333B7090E7891B00200484FF1F521C0020521C0020A21C0020E891FF1FCDCCCCCC4FF47A73034A03FB00F0A2FB0030800900F01CBFD34D621008B500F031
S38500011A10A3FD4FF47A73A0FB03014FF47A720023FEF72CFD08BD00BF00B54FF0E02383B0D3F8043D0068C3F3080373B102A9002341F8043D01F05EFC01280BD010F1FF3018BF012003B05DF804FB1A46194601F097FAF3E7019B002BF0D0044B4FF080521A60BFF34F8FBFF36F8FE7E704ED00E010B5021D0446FF2001F05EFA0346B0FABF
S38500011A9080F02360400910BD08B5006801F00EFE002008BD0E4B1B6882B000220133019208D04FF0100383F31188BFF36F8FBFF34F8FFEE74FF0100383F31188BFF36F8FBFF34F8F019B002BFCD002B0704700BF0884FF1F08480068006880F308884FF0000080F3148862B661B6BFF34F8FBFF36F8F00DF00BF000008ED00E0DFF80C002E
S38500011B10016841F4700101607047000088ED00E030B421F001014FF08075074C40F80C4C6FF0020340F8202C00E9220040F8243C30BC4438704700BFA51A010000000000074B19680868B0E8F04F80F30988BFF36F8F4FF0000080F311887047AFF30080D01D00204FF0100383F31188BFF36F8FBFF34F8F0A4A13680133012B136000D089
S38500011B907047084B1B6813F0FF0FF9D04FF0100383F31188BFF36F8FBFF34F8FFEE700BF0884FF1F04ED00E0084A136843B94FF0100383F31188BFF36F8FBFF34F8FFEE7013B13600BB983F3118870470884FF1FEFF30980BFF36F8F154B1A681EF0100F08BF20ED108A20E9F04F10602DE909004FF0100080F31188BFF34F8FBFF36F8F6B
S38500011C1000F03CFE4FF0000080F3118809BC19680868B0E8F04F1EF0100F08BFB0EC108A80F30988BFF36F8F704700BFAFF30080D01D002008B54FF0100383F31188BFF36F8FBFF34F8F00F085FC18B1034B4FF080521A60002383F3118808BD04ED00E030B4064B064D074800224BF67F3407211A602A600460196030BC704710E000E026
S38500011C9018E000E014E000E03A4B3B4A1968914238D01A68394B9A423DD010B5384B39481A78394C82B0D2B2FF21019219701B78DBB28DF803309DF803309DF80320072103F0100301601106237048BF062301D40FE00B469DF803205200D2B28DF803209DF80320120603F1FF31F2D4032B03601AD04FF0100383F31188BFF36F8FBFF3F6
S38500011D104F8FFEE74FF0100383F31188BFF36F8FBFF34F8FFEE74FF0100383F31188BFF36F8FBFF34F8FFEE70199154C174A1B02C9B203F4E06303602170136843F470031360136843F070431360FFF789FF104B00241C60FFF7D2FE0E4A136843F040431360FFF7B7FE00F089FDFFF793FE204602B010BD00ED00E071C20F4170C20F4155
S38500011D9000E400E0A81C0020A41C002020ED00E00884FF1F34EF00E0EFF305830F2B0ED91049114A5B5C12789A4208D94FF0100383F31188BFF36F8FBFF34F8FFEE70B4B0B4A1B68126803F4E063934208D94FF0100383F31188BFF36F8FBFF34F8FFEE7704700BFF0E300E0A41C00200CED00E0A81C00202DE9F043224EDFF8909085B01E
S38500011E104FF000080CE0DB68DC681F68251D284601F0F8FC636A20469847E369012B0AD033681A68002AEED1174A11683160136005B0BDE8F083A3693B449F4229461AD3D9F8003073B1CDF800800197029400F0EBFE00231A466946D9F8000001F090F80028DDD14FF0100383F31188BFF36F8FBFF34F8FFEE763602461306801F0A8FCDA
S38500011E90CEE700BFAC1C0020B01C0020C81D0020F0B5224C89B0FFF765FE276837B3FFF783FE2368CBB1002407AA06A905A80594069400F00DFF059B069802930321234601900091079A1649164800F0B7FA164B186010B1012009B0F0BD4FF0100383F31188BFF36F8FBFF34F8FFEE70F4E104D304601F04DFC284601F04AFC0D49DFF81E
S38500011F1040C000970C4B0E600C4ACCF8005010210A2000F0C7FF2060C1E700BFC81D0020C4A00100BD1F0100CC1D0020541D0020681D0020AC1C0020801D0020B41C0020B01C002038B370B5174D0446286884B088B1164605291A460B468DE8480002940BDC00F061FE02280DD0002328681A46694601F005F804B070BD0023694601F0AB
S38500011F9055F904B070BD2868089A0023694600F0F7FF04B070BD4FF0100383F31188BFF36F8FBFF34F8FFEE7C81D00202DE9F04F864E874DDFF82482864C89B04FF0010933681F68002F77D0DB68D3F800A000F0B3FA00F0B9FA2B68984283467ED38245286040F287800022AAEB0B01206801F069FB00F045FB38B9774A4FF080531360DB
S38500012010BFF34F8FBFF36F8F4FF0000A002204A9206801F0C5F90028D2D0049B002B43DB069F7B6913B1381D01F0ECFB00F08CFA2B68984259D3049B2860092BE6D809FA03F313F4047F40F08E8013F0C70FDDD0059BBA693F6113EB020C2CBF012100218445C7F804C000F29280C31A9A4200F2A6807B6A38469847FB69012BC6D105985B
S38500012090BA69CDF800A00023024419463846FFF759FF0028BAD14FF0100383F31188BFF36F8FBFF34F8FFEE7059B079906989847049B002BAADBB3E700F03EFA00F044FA2B689842834609D3D8F80030C5F800B01A68B2FA82F2BA46520985E7FFF78AFEC5F800B000F0CCFA8EE70390FFF782FE0398A0E700F0C4FA3368DB68DF68391D26
S385000121100846039101F07EFBFA690399012A03D07B6A3846984777E7BA693F610AEB0200834578602FD3ABEB0A0B5A4539D8236883B14FF0000BCDF814A00697CDF810B000F072FD5B465A4604A9206800F018FF0028DDD14FF0100383F31188BFF36F8FBFF34F8FFEE7059BBB61FBB1034483427B603F6107F1040194BFD8F80000306825
S3850001219001F026FB42E7306801F022FBC0E7834202D900293FF46DAF391D306801F018FB34E7D8F8000001F013FBB1E74FF0100383F31188BFF36F8FBFF34F8FFEE7391DD8F8000001F004FB20E700BFAC1C00207C1D0020C81D002004ED00E0B01C002080B5124C124F134E134DDFF850904FF080580EE0FFF7B6FCF368D868043001F016
S3850001221001FB2B68013B2B602368013B2360FFF7CBFC2368002BEDD13B68012BF9D9C9F80080BFF34F8FBFF36F8FF2E7801E0020DC1D0020602400207C1E002004ED00E0F8B5184B184D1C682A682B680027064682F84D70181D0F4601F0D4FA731C17D02B68A4195C600BD2104B18682968043101F0AEFA0E4B1A68944238BF1C60F8BDF2
S385000122900C4B18682968BDE8F840043101F0A0BA002FE5D0296808480431BDE8F84001F087BA00BF74240020D01D0020D41D00202C240020D81D00204C2400202DE9F047099E0A9C089D26634FEA820A0F4652468046A5213046994607F085FE266BAAF1040A56447B1E26F007060B3704F13402597802F8011B13F8011F09B1BB42F7D1EC
S38500012310072D28BF07254FF0000A271DE5622564384684F83FA0C4F844A001F045FAC5F1080504F1180001F03FFA4A464146A561C4F848A0304684F84DA084F84CA024616462FFF7E5FB2060FFF70CFC2D4B2E4D1A68DFF8E08001321A602E6816BB2C601B68012B27D108EB0600143601F010FAA02EF8D1DFF8C090244E484601F008FA76
S38500012390304601F005FA224801F002FA214801F0FFF9214801F0FCF9204A214BC2F800901E6008E01F4B1B682BB92A68E36AD26A9A4298BF2C601C481C490268E36A0E680132B34202604FF0140088BF0B6000FB0380394601F0ECF9FFF7E6FB114B1B6863B12A68E36AD26A9A4207D2104B4FF080521A60BFF34F8FBFF36F8F2046BDE814
S38500012410F08700BF7C1E0020D01D0020C823002034240020602400204C240020D41D0020D81D002048240020AC210020B023002004ED00E0DC1D0020B4230020F0B587B00D9C0C9E0E9D74B1EDB150270597059F502F11D04FF0100383F31188BFF36F8FBFF34F8FFEE74FF0100383F31188BFF36F8FBFF34F8FFEE7029501940096FFF7A6
S385000124901DFF07B0F0BD4FF0100383F31188BFF36F8FBFF34F8FFEE730B587B050230593059B502B08D04FF0100383F31188BFF36F8FBFF34F8FFEE7184A194B02920024019300942346C82216491748FFF7F6FE28B1FFF7DDFC01280CD0013001D007B030BD4FF0100383F31188BFF36F8FBFF34F8FFEE74FF0100383F31188BFF36F8F94
S38500012510BFF34F8F09490A4A0A4B4FF0FF350D6010601C60FFF7B8FBE1E700BFDC230020841E0020CCA00100F12101002C2400204824002074240020024A136801331360704700BFA8210020014B1868704700BF742400202DE9F84F3E4B1B68002B43D13D4B1F6801371F60002F4AD03B4E33689F4253D33A4CDFF80081DFF800B1002574
S385000125902AE02368DB68D3F80CA0DAF804200AF104099742484656D301F034F9DAF828200AF118000AB101F02DF9DAF82C20D8F8003002EB82009A4249460BEB800088BFC8F8002001F0F4F8264BDAF82C201968CB6A9A4228BF012523681B68002BD0D14FF0FF33336004E01F4A13680133136000251E4B1B68002B18BF01252846BDE891
S38500012610F88F174C23681B6853B14FF0100383F31188BFF36F8FBFF34F8FFEE70025E8E7134B2168134A18682060196013680133136023681B6843B12368084EDB68DB685B68336093E73260D3E7044E4FF0FF3333608CE7A8210020742400202C240020D41D0020D01D0020A4210020C8240020D81D002030240020B0230020DC1D0020EB
S385000126902DE9F047374C236843B94FF0100383F31188BFF36F8FBFF34F8FFEE7FFF762FA2368013B23602468002C4DD12E4B1B68002B49D02D4E2E4F2E4DDFF8CCA0DFF8CC901EE0FB68DC6804F1040804F1180001F098F8404601F095F8E36A2A6803EB8300934241460AEB800088BF2B6001F05FF8D9F80030E26ADB6A9A4224BF012363
S3850001271033603B68002BDDD13CB11B4B1A68126802BB1A4B4FF0FF321A60194D2C683CB10127FFF717FF00B13760013CF9D12C6033684BB1134B4FF080521A60BFF34F8FBFF36F8F012400E00024FFF72DFA2046BDE8F0871A68094BD268D26852681A60DBE700BFA82100207C1E0020C824002034240020B0230020D41D00202C240020C0
S38500012790A421002004ED00E0DC1D0020D01D002038B5A8B141B94FF0100383F31188BFF36F8FBFF34F8FFEE71E4C22688AB14FF0100383F31188BFF36F8FBFF34F8FFEE74FF0100383F31188BFF36F8FBFF34F8FFEE702462068144D013020600B46116828685B182CBF01240024884213D2B4B1984214D21360181A0021FFF721FDFFF75E
S385000128103FFF58B9094B4FF080521A60BFF34F8FBFF36F8F38BD002CECD1E9E738BD1360EDE700BFA82100207424002004ED00E008B558B10F4B196889B14FF0100383F31188BFF36F8FBFF34F8FFEE70A4B4FF080521A60BFF34F8FBFF36F8F08BD1A6801321A60FFF7ECFCFFF70AFF0028EDD008BD00BFA821002004ED00E0414B1B6834
S38500012890002B71D1404A70B5404C136023681B6B1A68B2F1A53F03D15A68B2F1A53F67D0206821683431FDF775FF394E394932689300981880000858002845D1002A38D0531E03EB83008000085800283AD183B3931E03EB83008000085898BB4BB3D31E03EB83008000085860BB13B3131F03EB83008000085828BBDBB1531F03EB8300AE
S3850001291080000858F0B9A3B1931F03EB830080000858B8B96BB1D31F03EB83008000085880B933B1A2F1080303EB830292008A5842B94FF0100383F31188BFF36F8FBFF34F8FFEE71A469B0013449B00CD1808336868406868601944884204BF40686860C3682360326070BD074B01221A6070479A68B2F1A53F93D1DB68B3F1A53F8FD19B
S3850001299093E700BFA8210020C8240020D01D0020B0230020DC1D002010B370B51C4D0C462968183100F014FF1A4B1E682B682868002283F84D20043000F024FF631C18D02B68A4195C601BD2134B18682968043100F0FEFE114B1A68944238BF1C6070BD4FF0100383F31188BFF36F8FBFF34F8FFEE729680A480431BDE8704000F0D8BEDD
S38500012A10084B18682968BDE87040043100F0E0BED01D002074240020D41D00202C2400204C240020D81D0020F8B5002830D0214C0D4621681646183100F0BAFE1E4B7EB11B6823682068002283F84D20043000F0D9FE216819480431BDE8F84000F0A8BE1F682368206883F84D60043000F0CAFE2368ED195D6014D2114B1868216804316C
S38500012A9000F0A6FE0F4B1A68954212D21D60F8BD4FF0100383F31188BFF36F8FBFF34F8FFEE7094B18682168BDE8F840043100F08FBEF8BDD01D0020742400204C240020D41D00202C240020D81D002038B5C368DC6824B304F11805284600F093FE174B1B682BBB251D284600F08CFE144AE36A116814488B4288BF136003EB830329467D
S38500012B1000EB830000F054FE0F4BE26A1B68DB6A9A4283BF0D4B01201860002038BD4FF0100383F31188BFF36F8FBFF34F8FFEE72946074800F03CFEE6E700BFA8210020B0230020DC1D0020D01D0020C824002034240020034A044B12681B6880E80C00704700BF3024002074240020F8B5A0B351B305460E46FEF7F5FFDFF89CC0244B9F
S38500012B90DCF80020186890F84D40A4B93368591C0DD0204895E812000768B94201D0A24230D2121B9A4221D3002333600124FEF7FBFF2046F8BD1B68002283F84D200124FEF7F2FF2046F8BD4FF0100383F31188BFF36F8FBFF34F8FFEE74FF0100383F31188BFF36F8FBFF34F8FFEE79B1A0068DCF800203360002485E80500FEF7D4FF30
S38500012C102046F8BD0124FEF7CFFF2046F8BD00BFD01D00203024002074240020014B01221A607047C8240020054B1B6833B1054B1B68002B0CBF0220002070470120704748240020A821002008B338B51D4B1B68984208D04FF0100383F31188BFF36F8FBFF34F8FFEE7436C43B94FF0100383F31188BFF36F8FBFF34F8FFEE7C16A026C20
S38500012C90013B9142436400D01BB1002038BD00207047051D0446284600F0B4FD0A4A236C1168E362C3F108008B42A061074888BF136003EB830300EB8300294600F078FD012038BDD01D0020B0230020DC1D0020044B036010B48023034C0C6013605DF8044B704778240020B021002070B51546026C866B044632B905683DBB4068FFF785
S38500012D10A3FF656025E06DB9806807F061F9A368216C62680B449342A36017D32368A360284616E0C06807F053F9236CE26821685B421A448A42E26002D262681344E360022D03D126B1013E002002E0002000E030460136A66370BD026C034672B110B40846D9685C681144A142D96024BF1968D960D9685DF8044B07F02AB9704700008B
S38500012D9070B50546FEF7EEFE95F8454064B2002C16DD6B6AA3B105F1240605E0013CE3B25CB26BB16B6A5BB13046FFF78FFE0028F4D0013CFFF732FFE3B25CB2002BF1D1FF2385F84530FEF7EFFEFEF7CBFE95F8444064B2002C16DD2B69A3B105F1100605E0013CE3B25CB26BB12B695BB13046FFF76CFE0028F4D0013CFFF70FFFE3B239
S38500012E105CB2002BF1D1FF2385F84430BDE87040FEF7CABE38B5E0B104460D46FEF7A2FE236CE16B2268A26001FB03F1CB1A134400200A44FF21A063E36084F84410626084F8451005BB236963B9FEF7ADFE012038BD4FF0100383F31188BFF36F8FBFF34F8FFEE704F11000FFF730FE0028ECD00B4B4FF080521A60BFF34F8FBFF36F8F0F
S38500012E90FEF792FE012038BD04F1100000F080FC04F1240000F07CFCFEF786FE012038BD04ED00E040B94FF0100383F31188BFF36F8FBFF34F8FFEE78BB110B582B002B3B1B148240194019C482C21D04FF0100383F31188BFF36F8FBFF34F8FFEE74FF0100383F31188BFF36F8FBFF34F8FFEE74FF0100383F31188BFF36F8FBFF34F8F55
S38500012F10FEE781B948220192019A482ADED11A46D86319641A60012118461C46FFF77AFF204602B010BD4FF0100383F31188BFF36F8FBFF34F8FFEE740B94FF0100383F31188BFF36F8FBFF34F8FFEE7884208D24FF0100383F31188BFF36F8FBFF34F8FFEE710B582B013460C460022022100911146FFF797FF00B1846302B010BD00BF3A
S38500012F902DE9F04F85B00192002800F00781002900F03C81022B00F02C8104461E460F46FFF742FE28B9019B002B40F01981994601E04FF00009FEF7D5FDA26BE36BDFF868A29A424FF000087CD3022E7AD0019D002D00F0F980B9F1000F00F0F180FEF7E3FDFFF7A9FAFEF7BDFD94F84430FF2B08BF84F8448094F84530FF2B08BF84F8B1
S385000130104580FEF7D1FD01A902A8FFF7AFFD002840F0CD80FEF7A6FDA26BE36B9A4266D0FEF7C2FDFEF79EFD94F845506DB2002D16DD636AA3B104F1240905E0013DEBB25DB26BB1636A5BB14846FFF73FFD0028F4D0013DFFF7E2FDEBB25DB2002BF1D1FF2384F84530FEF79FFDFEF77BFD94F844506DB2002D16DD2369A3B104F11009B0
S3850001309005E0013DEBB25DB26BB123695BB14846FFF71CFD0028F4D0013DFFF7BFFDEBB25DB2002BF1D1FF2384F84430FEF77CFDFFF7E6FAFEF756FDA26BE36B9A424FF0010982D2324639462046FFF70FFE636A002B7DD138B1544B4FF080521A60BFF34F8FBFF36F8FFEF75FFD012065E004F11009FEF759FD48460199FFF74DFCFEF74D
S3850001311031FD94F845506DB2002D16DD636AA3B104F1240B05E0013DEBB25DB26BB1636A5BB15846FFF7D2FC0028F4D0013DFFF775FDEBB25DB2002BF1D1FF2384F84530FEF732FDFEF70EFD94F844506DB2002D04DC11E0013DEBB25DB26BB123695BB14846FFF7B3FC0028F4D0013DFFF756FDEBB25DB2002BF1D1FF2384F84430FEF7BC
S3850001319013FDFFF77DFA002894D14FF08053CAF80030BFF34F8FBFF36F8F8BE74FF0100383F31188BFF36F8FBFF34F8FFEE72046FFF7E6FDFFF764FA002005B0BDE8F08F02A8FFF7C7FC0AE7FEF7EEFC2846F4E704F12400FFF77AFC00287FF47CAF82E74FF0100383F31188BFF36F8FBFF34F8FFEE7C26B012A3FF4D0AE4FF0100383F35F
S385000132101188BFF36F8FBFF34F8FFEE7026C002A3FF4C0AE4FF0100383F31188BFF36F8FBFF34F8FFEE700BF04ED00E02DE9F843F0B1002941D0022B33D004461F4690468946FEF7A9FDEFF311864FF0100383F31188BFF36F8FBFF34F8FA26BE36B9A420FD3022F0DD0002086F31188BDE8F8834FF0100383F31188BFF36F8FBFF34F8FAB
S38500013290FEE794F845503A4649466DB22046FFF72DFD6B1C1DD06B1C5BB284F845300120E2E7C46B012CC8D04FF0100383F31188BFF36F8FBFF34F8FFEE7046C002CBAD04FF0100383F31188BFF36F8FBFF34F8FFEE7636A002BE2D004F12400FFF7F6FB0028DCD0B8F1000FD9D00120C8F80000BAE700BF78B3036C43B14FF0100383F37E
S385000133101188BFF36F8FBFF34F8FFEE70368002B3AD070B504460D46FEF73EFDEFF311864FF0100383F31188BFF36F8FBFF34F8FA26BE36B9A4225D294F8453001325BB2A2635A1C10D001335BB284F84530012086F3118870BD4FF0100383F31188BFF36F8FBFF34F8FFEE7636A002BEFD004F12400FFF7ABFB0028E9D0002DE7D0012098
S385000133902860E5E70020E3E74368002BC1D04FF0100383F31188BFF36F8FBFF34F8FFEE72DE9F04385B00192002800F05081002900F05C8104460E46FFF736FC50B9019D4DB14FF0100383F31188BFF36F8FBFF34F8FFEE70025FEF7C5FBD4F83890DFF8C8820027B9F1000F40F08680019B002B00F0368115B902A8FFF7ACFBFEF7D4FBBE
S38500013410FFF79AF8FEF7AEFB94F84430FF2B08BF84F8447094F84530FF2B08BF84F84570FEF7C2FB01A902A8FFF7A0FB002840F0BE80FEF797FBA36B002B6CD104F12409FEF7B2FB48460199FFF7A6FAFEF78AFB94F845506DB2002D04DC11E0013DEBB25DB26BB1636A5BB14846FFF72FFB0028F4D0013DFFF7D2FBEBB25DB2002BF1D154
S38500013490FF2384F84530FEF78FFBFEF76BFB94F844506DB2002D16DD2369A3B104F1100905E0013DEBB25DB26BB123695BB14846FFF70CFB0028F4D0013DFFF7AFFBEBB25DB2002BF1D1FF2384F84430FEF76CFBFFF7D6F838B94FF08053C8F80030BFF34F8FBFF36F8F0125FEF73CFBD4F83890B9F1000F3FF47AAF31462046FFF72CFCAF
S3850001351009F1FF33A3632369002B40F0BC80FEF74BFB0120A7E0FEF747FBFEF723FB94F845506DB2002D16DD636AA3B104F1240905E0013DEBB25DB26BB1636A5BB14846FFF7C4FA0028F4D0013DFFF767FBEBB25DB2002BF1D1FF2384F84530FEF724FBFEF700FB94F844506DB2002D16DD2369A3B104F1100905E0013DEBB25DB26BB19F
S3850001359023695BB14846FFF7A1FA0028F4D0013DFFF744FBEBB25DB2002BF1D1FF2384F84430FEF701FB0125FFF76AF89CE7FEF7D9FA94F845506DB2002D16DD636AA3B104F1240905E0013DEBB25DB26BB1636A5BB14846FFF77AFA0028F4D0013DFFF71DFBEBB25DB2002BF1D1FF2384F84530FEF7DAFAFEF7B6FA94F844506DB2002D1C
S3850001361016DD2369A3B104F1100905E0013DEBB25DB26BB123695BB14846FFF757FA0028F4D0013DFFF7FAFAEBB25DB2002BF1D1FF2384F84430FEF7B7FAFFF721F8FEF791FAA36B63B1FEF7AFFA01254CE74FF0100383F31188BFF36F8FBFF34F8FFEE7FEF7A2FA002005B0BDE8F083036C002B3FF4A0AE4FF0100383F31188BFF36F8FBD
S38500013690BFF34F8FFEE704F11000FFF71FFA00283FF43DAF044B4FF080521A60BFF34F8FBFF36F8F33E700BF04ED00E000B170474FF0100383F31188BFF36F8FBFF34F8FFEE700BF70B505460C461646FEF74AFA95F84430FF2B04BF002385F8443095F84530FF2B04BF002385F84530FEF75CFAAB6B2BB93246214605F12400FFF794F954
S38500013710FEF730FA95F8454064B2002C16DD6B6AA3B105F1240605E0013CE3B25CB26BB16B6A5BB13046FFF7D1F90028F4D0013CFFF774FAE3B25CB2002BF1D1FF2385F84530FEF731FAFEF70DFA95F8444064B2002C16DD2B69A3B105F1100605E0013CE3B25CB26BB12B695BB13046FFF7AEF90028F4D0013CFFF751FAE3B25CB2002B38
S38500013790F1D1FF2385F84430BDE87040FEF70CBA00F108034FF0FF310022816002604360C3600361704700BF00230361704700BF4368026810B49C688C609C684B600132616099605DF8044B08610260704700BF30B40D686B1C11D000F1080200E01A4653681C68A542FAD204684B60013499608A6051600861046030BC704702695368B2
S38500013810F2E700BF42688168036910B4916081685C684A601A68A04208BF5960013A002101611A6018685DF8044B70478C460178002940F0E9802DE9F04FDCF800305C695D7822786778A678B9B0012D8DF8322005AA139214AC24AA1192059106918DF834108DF8331007910891129414BF032204224FF0010E9C7BCDF80CC08DF8381097
S385000138908DF831708DF83C608DF826108DF827108DF825108DF82E108DF829108DF82F108DF839108DF83A208DF830208DF824E08DF828E09CF804905B4DCDF82A508DF83B40B9F1000F79D08A460F4601910E468C46029021E09C685E68E403B4FBF6F622F84E6C1C7802F8504C1C7B02F84B5CB4FA84F4640902F84F4C02F84C5C02F895
S38500013910485C02F84A5C013101220192CAB291455FFA88F603F1180349D9DD7B38A806EB86023C0100EB420200EB040B06F10108002DD0D09A68D3F804802BF88ECCD2030BF889CCB2FBF8F20BF887EC2BF88C2C93F800800BF8908C1A7B002A4DD10BF888EC0BF8832C0BF8822C1A7C38A800EB040A002A3CD10AF8862C029A38A80444E4
S3850001399052682A4804F885CC00EBC202013102F808E0CAB293F80DB004F88ABC01379145FFB2AA4604F884CC03F11803B5D8019B0298002B34D1BAF1000F2ED11C4B1A7822B341681B4A039D0446084609A902F031FD606802F0DAFD2B680EA95B68B0FBF3F36068109301F0CDF939B0BDE8F08F38AA224402F886ECBFE70BF888CC0BF8C0
S38500013A1083CC0BF882CCB0E7012070470A4C416821600124094A1C70D5E78DF83970CDE78DF83860C7E700BF0100000134250020302500202C2500202C250020CC2400202DE9F04103788EB0002B55D13C4B1C78002C67D05A78002A6CD0DFF8F4C001240F798DF806708F798DF80870CF798DF80770CF6804970F6905974F6906978F68DD
S38500013A9003978F6907970F6A09974F6A0A978F6A0B97CF692B4D08970E6BCF6A0B680C9700224F79009305F814208DF8097086B337788DF804704FF0010E03EB470305EB4406073305F814E000938DF835208DF8342077708DF805E00E46074661466A46007903F04FFB804610B915F814304BB940460EB0BDE8F0814FF0010840460EB0D3
S38500013B10BDE8F081336B38795A68597803F04EFDEEE78DF805608DF804608DF835608DF83460D9E7DFF82CC0074A4568156001221A7095E70133DFF818C0044A0124F4E7883A002054250020803A0020843A0020EC2F002058250020F0B5047885B06CBB184B40681B68184E184D8DF80F401B1A18BF012301EB431715F8134046F82720BD
S38500013B90D6788DF80460082617780296967852788DF80C708DF80D608DF80E203CB9C9B2002301AAC0B203F047FC05B0F0BD05EB43035B7801EB43010731F0E7012005B0F0BD00BF803A00208C3A002054250020F0B5047885B0002C34D11C4C4068246816781B4F1B4D8DF80C60241A18BF012401EB441C002E47F82C2015F81460D778F6
S38500013C108DF8047014BF4FF0400C4FF0080C5778CDF808C092F802C012798DF80DC08DF80E708DF80F2036B9C9B201AAC0B203F085FC05B0F0BD05EB4404627801EB42010731F1E7012005B0F0BD00BF803A00208C3A0020542500200378002B32D11A4B4068F0B51C68194B92F84850241A18BF012401EB441687B053F826301E78DF7854
S38500013C9004958DF81460124D9E788DF8156015F814608DF80C705F781B798DF817308DF816702EB105EB4404637801EB43010731536808320092C9B203AAC0B203F0DEFB07B0F0BD01207047803A00208C3A0020542500200378B3B90E4B40681B681B1A30B418BF01230C4C14F8135035B161B104EB43035B7801EB4303D91DC9B2C0B2B1
S38500013D1030BC03F069BC012070471146C0B230BC03F0A0BC803A0020542500200378CBB90D4B40681B680D4A1B1A18BF012310B412F813402CB9C9B2C0B25DF8044B03F0C1BE0029F8D002EB43035B7801EB43010731F0E701207047803A0020542500202DE9F047C0EBC0039C00624B53F80480234486B04F011B7E8DF80E30002A08EB0D
S38500013D9007054FF000040CBF0F23002303A906468DF810308DF80C408DF80D408DF80F408DF812408DF813408DF8114000F0BCFB95F80CA0BAF1000F4FD0BAF1010F6DD02A7A8DF80A4001238DF808308DF80930A2B10DF104094A4600213046019400F011FC2B69019A33F814300021304600F02DFC01342B7AE4B2A342ECD8304600F0DD
S38500013E10E3FB304600F0F4FB00218DF80C102B7A012B0C4611D02B6803AA33F81130ADF80E302146304605F07DFF2B7A0134E4B2013B9C422146EED3610058F807305B5AADF80E3003AA0123214630468DF80C3005F068FF06B0BDE8F0870DF11809012449F814AD51464A4630468DF809A08DF80AA08DF8084000F0C5FB2B7A8DF80A4055
S38500013E90A342BBD94A4600213046019400F0BAFB01342B7AE4B2A342F4D8AFE70DF11809214649F8144D30464A468DF808A08DF809A08DF80A4000F0A5FB2B69019A1B882146304600F0C2FB2B7A8DF80940012B8DF80AA092D954464A4600213046019404F1010A00F08EFB2B7A5FFA8AF4A342F2D883E78C3B0020F0B54568254B0F463B
S38500013F10C5EBC5029200BC683868985002F1080119441344B88862799880002485B0DC72DC801C819C725C7428464C601C745C611A76BE6805F09AFE01A805F0C9FDBB798DF805303078737896F802C03279F7788DF8040001A928468DF8063001238DF807C08DF80E208DF808308DF80C708DF8094005F0BBFD284605F00EFF064B21463B
S38500013F905A5D204600F030F9001B18BF012005B0F0BD00BF8C3B0020DCA00100F8B544681B48E5002B1B9B00C218D67A0EB10220F8BD527C002AFAD1C75807EB4117BA7A1ABB0C3303442A1B00EB820200250E460121566159715D80BA69787A397A521B18BF012211FB00F119801A71204605F07DFF00F02BFE2A4631462046FFF7B0FE01
S38500014010204600F0EBFA2846F8BD06330344DAE78C3B00202DE9F0474568DFF8CC804FEAC509A9EB0504A40008EB040A82B09AF811301BB9012002B0BDE8F0872846164605F054FF00F00EFE0020FDF7CBFCFDF7D5FC58F80430DAF8142003EB421300241B7A8DF8044007468DF805408DF8064083B16A4600212846009400F0C3FADAF810
S385000140901420DAF8003003EB421301341B7AE4B2A342EED8284600F07DFA124B53F82540D4F89000C0F3C01058B116B915E0864213D9FDF7A3FCD4F890301B06A0EB0700F5D4864209D9A9EB050508EB8508002088F8110002B0BDE8F087032002B0BDE8F08700BFD4A001008C3B00202DE9F04FDFF8B090C0EBC0084FEA880809EB08034E
S3850001411059F808505B694FEA431A554485B0A97A01930646002938D108F10C074F4478886B682A7A03EB400B72B100245A462146304605F025FE01342A7AE4B2A2420BF1020BF3D87888A97A3B88104490FBF3F203FB120292B27A8011B9287DE0B97971397979B1019859F8081002908AB1013A92B28A44ADF80C20DAF81830DAF81C1003
S3850001419002A8984705B0BDE8F08F08F106074F44C5E75A1E92B2ECE7304600F01FFA3B887A88DDE78C3B00200020FFF79FBF00BF0120FFF79BBF00BF30B4950802F0030250F82530D2003F24944023EA040301FA02F21A4340F8252030BC7047890850F82100C00F704700BF70B508480E4611461546FFF7F3FF08B1012070BD04462A461F
S3850001421031460248FFF7D8FF204670BD00300640F0B4037A90E83000012B54F8252059D055D3022B35D0417A837AC67A090122F0500201F010019B01114303F040030B43082E23F4E06138D0320202F4E0630B43077B427B817B23F4004343EAC733120423F4702302F47022134309B143F0807344F825300122D4F8C010C37BAA40D7438E
S385000142903940AB400B43012EC4F8C03004D0F0BC704742F00302C6E70369047D5969F4B1012C07D1407D1C6800FA05F527403D4311431D605961F0BC7047324B324A9C4252680FD0314B9C4236D00023BFE722F00202A8E722F0010242F00202A3E739405961E8E702F00F0C102DEED801A353F825F000BF8743010081430100DB42010006
S38500014310DB420100DB420100DB420100DB420100DB420100DB420100DB420100DB420100DB420100DB4201007B430100754301006F4301006943010005B3012DC5D102F0070C114B5F6827F00F075F605A6842EA0C025A6000237AE702F00D0CF1E702F00E0CEEE74CF0080CEBE74CF0040CE8E74CF0020CE5E74CF0010CE2E702F00B0C26
S38500014390DFE700BF00A004400080044000B0044068B170B506460C46002520460135FFF737FFAE4204F11804F7D1002070BD0020704700BF50F82130120402F4702223F470231A4340F82120704700BF4161704741607047C16070470023036002684FF6FF7142F0800202604160C160036143618361C361036243628362C36203634363AD
S385000144108363C363036443648364C364036543658365C365C0F89031C0F89431036843F001030360036823F080030360704700BF0B78154A70B405684C789B0403F440232A401A430CB142F400328B780D79CC784E791B032D0203F4E04305F47065A4002B4304F00C04234313430EB143F002038A790AB143F40043CA790AB143F02003CE
S38500014490036070BC704700BFD100F1FF30B48C00651800EBC50512042D694BB90C4400EBC40002F47F0225EA0205056130BC70470C4400EBC40002F47F031D43056130BC704700BF30B48C00651800EBC50512022D6943B90C4400EBC40092B225EA0205056130BC70470C4400EBC40093B21D43056130BC704700BF30B48C00651800EB6B
S38500014510C505D2B22D693BB90C4400EBC40025EA0205056130BC70470C4400EBC4001543056130BC704700BF164A174B70B552F820600C4605460021185C05F063F83046FFF74AFF21463046FFF772FF237A0F4A6BB1536843F400535360E3790BB9637853B10B4B5857BDE8704000F06FBB536823F400535360F0E7054B5857BDE8704063
S3850001459000F070BBE0A00100E8A0010000800440ECA0010009490A4A034610B5085652F8234000F05FFB074A536823F400535360236823F08003236010BD00BFECA00100E0A0010000800440034B53F82020136843F0800313607047E0A00100034B53F82020136843F4803313607047E0A00100034B53F82020136843F0010313607047A7
S38500014610E0A00100104B2DE9F041144653F8206012682379012505FA02F230460F46FFF76BFF22686379304605FA02F23946FFF749FF2268A3793046394605FA02F2BDE8F041FFF723BF00BFE0A0010010B401EB8101064C02EB4102063254F820105DF8044B9BB241F82230704700BFE0A00100604A614B70B552F8204053F820506369F2
S385000146900646180524D52B6913B395F82430012B00F0A080E36923F00203E361E36923F00103E361304600F08DF900260122114620462E7300F0B0FA01222046114600F0ABFA6B79002B5ED1012385F8743070BD6369D90427D56B692BB395F82430012B6FD0E36923F00203E361E36923F00103E361304600F066F900260122114620466C
S385000147102E7300F089FA01222046114600F084FA6B7923B105F12800FDF77EF96E71022385F8743070BD63699A0703D56B8B9BB2002B31D16369DB0703D52B8B9BB2002B2ED12B8B9BB2002B2ED06B8B9BB2002B32D06B8B9BB213B9298B89B201B170BDA369AE6F23F40063A361A36923F48053A36116B1EA6F2846B0476B79002B32D114
S3850001479000232B7370BD05F12800FDF745F901236E7185F8743070BD304600F0CDF8C9E7304600F03BF8CCE7A36923F00103A3616B8B9BB2002BCCD1A36923F00203A361C7E7A36923F00103A361A36923F00203A3618EE7A36923F00103A361A36923F00203A3615EE705F12800FDF715F900236B71C5E70C84FF1FC43B0020022809D8E9
S38500014810054A52F820305B6ADB0701D4FFF730BF00F0F0B8704700BF0C84FF1FF0B4444A444B52F8204053F82030E16D93F8212001F00701521A12F0FF026FD0197900294BD158881BE002286CD131F802CB19619D8B16FA85F797FBF0F500FB1575ADB29D83C4F864C0198B891B89B21983198B89B2002952D0013A12F0FF024ED0998BF3
S3850001489089B2411A0429DEBF998B411A8EB21969C8BF0426002949D00128D4D111F801CB1961D5E702282FD131F802CB19619F8B16FA87F797FBF0F500FB157080B29883C4F864C0198B891B89B21983198B89B221B3013A12F0FF0220D0198B89B2012916D0998B588889B2411A0429DEBF998B411A8EB21969C8BF042689B10128D1D174
S3850001491011F801CB1961D2E751F804CB1961CEE7226E002122F4801222661983F0BC70478C46CDE751F804CB196191E78C4698E70C84FF1FC43B0020204A214BF0B452F8207053F82000FB6DC3F30243002B2ED04288DEB27D6FC38B9BB2D31A042B28DCC48B141BA4B2A4466CB143690022D10025FA01F119704369013291B201338C42BF
S385000149904361F4D84288C38B1CFA83F191FBF2F302FB13139BB2C383438B1C1BA4B24483438B9BB21BB1013E16F0FF06D2D1F0BC70474FF0040C6446D7E700BF0C84FF1FC43B00200A4B10B553F82040A36923F40063A361A36923F48053A36120460B2100F022F920460C21BDE8104000F01CB90C84FF1F2DE9F0417F4FDFF8008257F82D
S38500014A10204058F8205063691A05064639D52B69002B36D095F8243000222A73002B40F0CB80E36923F00203E361E36923F00103E3613046FFF7C6FFA36923F48063A3610A21204600F0F0F86B79002B40F0AD80AB6F1BB1EA6F00212846984701221146204600F0D9F801221146204600F0D4F820460B2100F0D8F8012385F87430BDE82A
S38500014A90F0816369DB0438D56B69002B35D095F8243000222A73002B48D1E36923F00203E361E36923F00103E3613046FFF78AFFA36923F48063A3610A21204600F0B4F86B79002B40F08180AB6F1BB1EA6F00212846984701221146204600F09DF801221146204600F098F820460C2100F09CF8022385F87430BDE8F0816369980702D5AC
S38500014B106B8B9BB253B96369D90702D52B8B9BB243B92B8B9BB293B1BDE8F0813046FFF70BFFF0E73046FFF779FEF2E7A36923F00203A361A36923F00103A361B5E7A36923F00103A361A36943F48063A3616B8B9BB2002BE0D162695205DDD558F8265057F8264095F824202B73002A34D1E36923F00203E361E36923F00103E3613046DA
S38500014B90FFF720FFA36923F48063A36120460A2100F04AF86B7943BBAB6F002BBCD0EA6F28460021BDE8F041184705F12800FCF733FF00236B714BE7A36923F00203A361A36923F00103A36133E705F12800FCF723FF00236B7177E7A36923F00203A361A36923F00103A361C9E705F12800FCF713FF00236B71CFE70C84FF1FC43B0020DB
S38500014C100020FFF7FBBD00BF0120FFF7F7BD00BF0220FFF7F3BD00BF036943EA422242EA01220261704700BFB1F57C5F07D04269012303FA01F11143416100207047436943F47C5343610020704700BF00F01F0101234009024A8B4042F82030704700BF00E100E04309203300F01F000122034902FA00F041F82300704700BF00E100E09A
S38500014C90044A1368002B03DD013B136003B962B6704700BFD03B002072B6024A1368013313607047D03B00202DE9F041334C344D54F8206055F820507078AC680428A4B248D0032803BF0134A4B200200120B2F5004F3CD8B3F5004F39D804FB02FCCCF3CF3CB2F5004F04FB03F308BF0CF1010C4FEAE33708BF1FFA8CFC48BB4B084FEA2F
S38500014D10C30E0122D5F8648002FA0EF212EA080F24D08022696E02FA0EFE1EEA010F29D02A685B0012F0180F03F1010303D105EBC302C2F808C0DBB2013305EBC3039F60AB6D23F08003AB657480BDE8F0810120BDE8F0816400A4B20020B8E72B6801319B0605EBC10146BF4FEA5C038B60C1F808C0E5E75B000133D9E700BFD43B0020B1
S38500014D90F0A001002DE9F04F934B83B053F8203000930BB15F781FB1012003B0BDE8F08F8E4B019053F8204023680E4623F01803B2782360236823F4007323602368636D43F004036365009B5A703378002B00F05A83F1684FF0010989E0017ADB00002940F0D180616E4FF0100E0EFA03FE21EA0E016166691CC9B204EBC10A4FF0020E26
S38500014E10DAF80CB02BF0040BCAF80CB0DAF80CB04BF0080BCAF80CB0D4F864B090F807A00EFA03FE4EEA0B0EBAF1010FC4F864E000F0B180BCF1000F40F0B980D4F870C009FA01F141EA0C012167616ED6F814E04FF0040C0CFA03FC21EA0C016166616E9EF803C009FA03FE21EA0E016166616E4FF0800E0EFA03FE224421EA0E016166B3
S38500014E90D16841F01001D160D16841F02001D160BCF1000F5FD1626E4021994022EA01026266D4F864C00279202101FA03F343EA0C0363662946204601F09EF9F1682068884405F1100309FA03F398F80620034323603AB16B1CDBB22268103309FA03F31343236001373378FFB2BB4267D907EB87034FEA430801EB080011F8135090F8E2
S38500014F1005C06B08BCF1000F2BD0216F09FA05F20A432267427862454FEAC50204EB0201D1F80CE024D02EF0040EC1F80CE0D1F80CE04EF0080EC1F80CE0817900297FF44CAF616EDB004FF0020C0CFA03FC21EA0C01616679E7616E40229A400A4362669FE7226F09FA05F122EA01022267D1E74EF0040EC1F80CE0D1F80CE02EF0080E22
S38500014F90C1F80CE0D9E7D4F864E01021994041EA0E0161662EE7BCF1000F00F02582D4F870C00AFA01F141EA0C0121674DE7D4F870C009FA01F12CEA0101216745E7074B019A53F822507378002B00F028814FF000084FF00109C7E0D43B0020F0A001002A6F09FA01F313432B67037A63454FEAC10200F0D28005EB020EDEF80C3023F0BF
S385000150100403CEF80C30DEF80C3043F00803CEF80C304FEACA034FF0040BD5F864A090F809E00BFA03FB2A442AEA0B0AC5F864A0D2F80CA04AF0100AC2F80CA0D2F80CA04AF0200AC2F80CA0D5F800A001F1100209FA02F242EA0A022A60BEF1000F38D090F80EB04A1CD2B2BBF1000F00F0CE80D5F870A009FA02FE4EEA0A0EC5F870E007
S3850001509005EBC20EDC45DEF80CA090F80AC02AF0040ACEF80CA0DEF80CA04AF0080ACEF80CA000F0A480BCF1000F00F0A480D5F864C04FF0020E0EFA03FE2CEA0E0CC5F864C0D5F800C0103209FA02F242EA0C022A607269D278002A40F081806A6E4FF0400C0CFA03FC22EA0C026A66D5F864E090F807C020229A4042EA0E026A66D5F81B
S3850001511064E009FA03F242EA0E026A66BCF1000F5DD16A6E4FF0800C0CFA03FC22EA0C026A668279002A46D14FF0100ED5F864C0C27A0EFA03F301F0FE0A2CEA03036B665146284601F058F833691F440AF10101C9B23A7B284601F04FF808F1010873785FFA88F843455AD933694FEA0817D819D95D90F80DC04FEA510ABCF1000F7FF4DE
S385000151902FAF2B6F09FA01F223EA02032B67037A63454FEAC1027FF42EAFAB18D3F80CE04EF0040EC3F80CE0D3F80CE02EF0080EC3F80CE02DE74FF0100CD5F864E0C27A0CFA03F301F0FE0A43EA0E03B7E7D5F864C080229A4042EA0C026A66A1E7D5F864C040229A4042EA0C026A667EE7BCF1000F3FF45CAFD5F864E04FF0020C0CFA8C
S3850001521003FC4CEA0E0CC5F864C05AE7D5F870E009FA02FA2EEA0A0EC5F870E030E77369616DDA7841F002016165002A51D1B2782368B1680198A2F10402B2FA82F2520923F0200343EA4213236001F0E7F9E26C8E49B378009D0A406880042BE264A36800F0F480013880B20B401843A0603378002B00F0C180019F0025F36805EB8502BB
S3850001529003EB420013F81210428800233846FFF70BFD01353378EDB2AB42EED873787BB1019F002531692B01CA183846C95C93885288FFF7F9FC01357378EDB2AB42F1D8002800F09D80009A0023537003B0BDE8F08F1978002900F0BE80E16F41F40041E1679978E06F019F1D79090201F4706120F470600143032FE1678CBF0221042103
S38500015310B5B1E06F5D7940F00100E067002D40F0B580E06F20F01000E06798790128D4F8880014BF40F0010020F00100C4F88800D879B0B1E06F1D7A40F00200E067002D40F09780E06F20F02000E067587A0128D4F8880014BF40F0020020F00200C4F88800022931D0987AA8B1E06FDD7A40F00400E067002D77D1E06F20F04000E067DC
S38500015390187B0128D4F8880014BF40F0040020F00400C4F88800042917D1597BA9B1E16F987B41F00801E167E16F002858D121F08001E167D97B0129D4F888100CBF21F0080141F00801C4F888105B781BB1636D43F080036365616D530103F0600321F060021343636522E7D4F870C00AFA01F12CEA0101216728E57378002B7FF450AF09
S38500015410A06EF178009B32791B7820F03F0001F03F010143A166A16E920121F0C001D2B20A43A266626D42F001026265626D42F0080262652268DB0022F0180203F0180313430020236003B0BDE8F08F0B4043EA5000A0600BE7E16F21F40041E16740E741F08001E167A5E7E06F40F04000E06786E7E06F40F02000E06767E7E06F40F026
S385000154901000E06749E725469DE500BF0000FFFF2DE9F04FA24B53F820B083B0BBF1000F00F0E0809BF80140002C40F0DB809D4B4F8853F820A09C4EDAF8005025F01805CAF80050DAF84C503540CAF84C50DAF8082032403A43CAF80820DAF8002022F02002CAF80020DAF8642022F08002CAF86420DAF8642022F00102CAF864200A78A5
S38500015510002A66D0894A019002EBC0038946009307E0012A70D0013499F80020E4B2A24257D9D9F804102701CE5D394435B20BEB8502886890610BEB060CC8689063032E4FF001028CF8582026FA02F809D88A7902B10A793146504600F066FED9F8041039444A78002AD4D1DAF864708A78009B4FF0040C4FEAC8080CFA08F10AEBC505E7
S3850001559027EA0101CAF86410E968985721F01001E960E96821F02001E960EE68910001EA0C0126F004063143E960E968920021F0080102F008020A43EA60EA6842F04002EA60FFF743FB013499F80020E4B2A242A7D89BF80020DAF80010D20021F0180102F018020A43002001218BF80110CAF8002003B0BDE8F08F4A4B019AC87853F831
S385000156102220CF79536E4FEAC808042101FA08F119435166536E082101FA08F11943516602EBC50117BBCF6827F01007CF60CF68032847F02007CF6022D001282CD0042862D0022849D0731CDBB202EBC30237480199D36800EBC10043F04003D3608057FFF7F4FA012003B0BDE8F08FCF6847F01007CF60CF68032847F02007CF60DCD168
S3850001569002EBC505711CE86840F00400E860EF68C9B227F008072BE002EBC505711CE86840F00400E860EF68C9B227F0080702EBC100EF60C56845F00405C560C56825F00805C56002EBC102009BD168985741F04001D160FFF7BAFA1DE702EBC505711CE86820F00400E860EF68C9B247F0080702EBC100EF60C56825F00405C560C56811
S3850001571045F00805C560DDE702EBC505711CE86820F00400E860EF68C9B247F00807C6E7D43B0020F0A001000000FFFF08A10100034B53F8200010B1043130F811007047D43B0020F0B4514C54F82050002A74D0541E4808022C4FEAC0004FF0040425D86B6E04FA00F005EBC10123EA00006866CB6823F01003CB60CB6823F02003CB60F8
S38500015790C868930020F0040023400343CB60CB68920023F0080302F008021A43CA60CB6843F040030020CB60F0BC70476E6E844034436C666E6E082404FA00F030436866002B47D105EBC103D86820F01000D860D86840F02000D860062A46D0042A4AD0052A4DD0002216464FF0080C042705EBC1030131D86820F004000243DA60DC68E0
S38500015810C9B224F0080405EBC10144EA0C04DC60C86820F004003843C860CA6822F008023243CA60DA6822F04002DA60CB6843F040030020CB60F0BC704705EBC1010020CB6823F00403CB60CB6823F00803CB60F0BC704705EBC103D86840F01000D860D86840F02000D860B6E74FF0000C674604220826BBE74FF0000C17466646B6E776
S385000158904FF0080C002266461746B0E7F0A00100214B1B685A78012A00D070471F4A1268516E490730B41AD4D16881F08001C1F3C01102EBC1020C1D1569D06823F8145020F08000D060D2680A4603EB82018C6B1CB1134493F85830C3B930BC70471069916980B289B2884284BF94680919091AD06889B220F080001981D060D168516900
S3850001591021F08001516152690022DEE723468969002030BC184700BFD43B0020F0A00100204B1B685A78012A00D070471E4A1268516E490530B41AD4D16911F0800F0CBF0321022102EBC1020C1D1569D06823F8145020F08000D060D26803EB8100826B1AB10B4493F85830C3B930BC7047106A916A80B289B2884284BF94680919091AF6
S38500015990D06989B220F080009981D061D169516A21F080015162526A0221DEE7816930BC00201047D43B0020F0A00100204B1B685A78012A00D070471E4A1268516E490330B41AD4D16A11F0800F0CBF0521042102EBC1020C1D1569D06823F8145020F08000D060D26803EB8100826B1AB10B4493F85830C3B930BC7047106B916B80B2EB
S38500015A1089B2884284BF94680919091AD06A89B220F080001982D062D16A516B21F080015163526B0421DEE7816930BC00201047D43B0020F0A00100204B1B685A78012A00D070471E4A1268516E490130B41AD4D16B11F0800F0CBF0721062102EBC1020C1D1569D06823F8145020F08000D060D26803EB8100826B1AB10B4493F858301D
S38500015A90C3B930BC7047106C916C80B289B2884284BF94680919091AD06B89B220F080009982D063D16B516C21F080015164526C0621DEE7816930BC00201047D43B0020F0A00100214B5B685A78012A00D070471F4A5268516E490730B41AD4D16881F08001C1F3C01102EBC1020C1D1569D06823F8145020F08000D060D2680A4603EB44
S38500015B1082018C6B1CB1134493F85830C3B930BC70471069916980B289B2884284BF94680919091AD06889B220F080001981D060D168516921F08001516152690022DEE723468969002030BC184700BFD43B0020F0A00100204B5B685A78012A00D070471E4A5268516E490530B41AD4D16911F0800F0CBF0321022102EBC1020C1D15693F
S38500015B90D06823F8145020F08000D060D26803EB8100826B1AB10B4493F85830C3B930BC7047106A916A80B289B2884284BF94680919091AD06989B220F080009981D061D169516A21F080015162526A0221DEE7816930BC00201047D43B0020F0A00100204B5B685A78012A00D070471E4A5268516E490330B41AD4D16A11F0800F0CBF84
S38500015C100521042102EBC1020C1D1569D06823F8145020F08000D060D26803EB8100826B1AB10B4493F85830C3B930BC7047106B916B80B289B2884284BF94680919091AD06A89B220F080001982D062D16A516B21F080015163526B0421DEE7816930BC00201047D43B0020F0A00100204B5B685A78012A00D070471E4A5268516E490140
S38500015C9030B41AD4D16B11F0800F0CBF0721062102EBC1020C1D1569D06823F8145020F08000D060D26803EB8100826B1AB10B4493F85830C3B930BC7047106C916C80B289B2884284BF94680919091AD06B89B220F080009982D063D16B516C21F080015164526C0621DEE7816930BC00201047D43B0020F0A00100214B9B685A78012A3A
S38500015D1000D070471F4A9268516E490730B41AD4D16881F08001C1F3C01102EBC1020C1D1569D06823F8145020F08000D060D2680A4603EB82018C6B1CB1134493F85830C3B930BC70471069916980B289B2884284BF94680919091AD06889B220F080001981D060D168516921F08001516152690022DEE723468969002030BC184700BF22
S38500015D90D43B0020F0A00100204B9B685A78012A00D070471E4A9268516E490530B41AD4D16911F0800F0CBF0321022102EBC1020C1D1569D06823F8145020F08000D060D26803EB8100826B1AB10B4493F85830C3B930BC7047106A916A80B289B2884284BF94680919091AD06989B220F080009981D061D169516A21F080015162526A98
S38500015E100221DEE7816930BC00201047D43B0020F0A00100204B9B685A78012A00D070471E4A9268516E490330B41AD4D16A11F0800F0CBF0521042102EBC1020C1D1569D06823F8145020F08000D060D26803EB8100826B1AB10B4493F85830C3B930BC7047106B916B80B289B2884284BF94680919091AD06A89B220F080001982D06250
S38500015E90D16A516B21F080015163526B0421DEE7816930BC00201047D43B0020F0A00100204B9B685A78012A00D070471E4A9268516E490130B41AD4D16B11F0800F0CBF0721062102EBC1020C1D1569D06823F8145020F08000D060D26803EB8100826B1AB10B4493F85830C3B930BC7047106C916C80B289B2884284BF94680919091AA1
S38500015F10D06B89B220F080009982D063D16B516C21F080015164526C0621DEE7816930BC00201047D43B0020F0A00100214BDB685A78012A00D070471F4AD268516E490730B41AD4D16881F08001C1F3C01102EBC1020C1D1569D06823F8145020F08000D060D2680A4603EB82018C6B1CB1134493F85830C3B930BC70471069916980B29D
S38500015F9089B2884284BF94680919091AD06889B220F080001981D060D168516921F08001516152690022DEE723468969002030BC184700BFD43B0020F0A00100204BDB685A78012A00D070471E4AD268516E490530B41AD4D16911F0800F0CBF0321022102EBC1020C1D1569D06823F8145020F08000D060D26803EB8100826B1AB10B4409
S3850001601093F85830C3B930BC7047106A916A80B289B2884284BF94680919091AD06989B220F080009981D061D169516A21F080015162526A0221DEE7816930BC00201047D43B0020F0A00100204BDB685A78012A00D070471E4AD268516E490330B41AD4D16A11F0800F0CBF0521042102EBC1020C1D1569D06823F8145020F08000D0600D
S38500016090D26803EB8100826B1AB10B4493F85830C3B930BC7047106B916B80B289B2884284BF94680919091AD06A89B220F080001982D062D16A516B21F080015163526B0421DEE7816930BC00201047D43B0020F0A00100204BDB685A78012A00D070471E4AD268516E490130B41AD4D16B11F0800F0CBF0721062102EBC1020C1D1569C6
S38500016110D06823F8145020F08000D060D26803EB8100826B1AB10B4493F85830C3B930BC7047106C916C80B289B2884284BF94680919091AD06B89B220F080009982D063D16B516C21F080015164526C0621DEE7816930BC00201047D43B0020F0A00100436D43F00103436501F00702016821F0070111430160704700230422416F436716
S3850001619042650268036043608360C364026D03658365C365036643668366C26EC36603678367C367C0F88030C0F88430C0F88830C0F88C30C0F89030C0F89430C0F89830C0F89C30C268C3600361426943618361C269C3610362426A43628362C26AC3620363426B43638363C26BC3630364426C43648364704700BF012911D9052999BF3A
S385000162100239012306394FF4807303FA01F1C36E1AB923EA0101C16670471943C1667047102303FA01F1F2E703290AD8DFE801F01B130A02836F120392B223F470431A4382677047836F120202F4706223F470631A4382677047836F1201D2B223F0F0031A4382677047836F02F00F0223F00F031A438267704700BFF0B46D4B4C7853F88A
S3850001629020301CB98A78002A00F08D800A7812B10120F0BC7047D3F88C20C87A8D78CE7842F48022C3F88C20D3F88C2042F40022C3F88C20D3F88C2042F48012C3F88C20D3F88C2042F40032C3F88C20D3F88C20003018BF012022F4803242EA0042C3F88C20D3F88C2042F08002C3F88C20002C00F08B809A6D42F010029A659A6D002D98
S3850001631000F08B8042F020029A659A6D002E00F08B8042F040029A650A799D6D8C79C87991F805C00F7A520025F0020502F002022A439A659E6D8D7A4A7A26F0010646EA0C069E65996D003718BF012721F0080141EAC7019965D3F88C60210101F0100126F010042143C3F88C10D3F88C40410101F0200124F020000143C3F88C10D3F8D7
S385000163908C10920021F0040102F004020A43C3F88C20D3F88C2022F001022A430020C3F88C20F0BC7047CD78002D7FF46FAF0A78002A3FF46DAFD3F88C00CA7A40F48060C3F88C00D3F88C0040F40060C3F88C00D3F88C0040F48050C3F88C00D3F88C0040F40070C3F88C00D3F88C00120220F4807002F480720243C3F88C20D3F88C202F
S3850001641042F08002C3F88C202E469A6D22F010029A659A6D002D7FF475AF22F020029A659A6D002E7FF475AF22F040029A6573E7F0A001002DE9F047DFF8489159F8204082B024B10124204602B0BDE8F08790464A4A8B7B88F8003052F8205088F801400F460646A8F80240202249F820802146C8F80840C8F80C40C8F81040C8F8144056
S3850001649008F1180003F0AFFD2022214608F1380003F0A9FD2846C8F85840C8F85C40FFF76BFE2846797BFFF75BFE59F826202B681278019403F007034FF00109022A09FA03F955D0032A40D0012A04D1204601A903F098F8019C3B7BB4FBF9F4023B022BC8F804402BD900247A7CE86EFB7B397C920102F0400220F040000243EA66D5F80C
S3850001651084209B0122F0C002DBB21343C5F884302B681B4A49B923F4807390572B60FEF7A1FB204602B0BDE8F08743F4807390572B60FEF78BFB204602B0BDE8F08739463046FFF799FE0446CEE7DFF83CA00AEB460301A95C78204603F054F8019B0BB91AF81640204601A903F04CF8019CB2E701A91A2003F046F8019CACE7F0A0010066
S3850001659028A10100D43B002000A10100F0B5204A204B52F8202053F8203014681A7883B004F00703054601240020022A04FA03F4019024D0032A0DD0012A03D0B0FBF4F003B0F0BD01A903F01DF80198B0FBF4F003B0F0BD104F07EB450301A95E78304603F010F8019B0BB917F8156001A9304603F008F80198B0FBF4F003B0F0BD01A9F1
S385000166101A2002F0FFFF0198B0FBF4F003B0F0BDF0A00100D43B002000A10100034B53F820305868B0FBF1F080B27047D43B0020002001F0EBB800BF002001F099B800BF002001F0ABB800BF002001F0DFB800BF002001F0DBB800BF012001F0D7B800BF012001F085B800BF012001F0CFB800BF022001F0CBB800BF022001F079B800BFF3
S38500016690022001F0C3B800BF084B98420AD003F58053984208D003F5C04398420CBF1020002070472020704710207047004002400368DA020ED5036823F000430360036823F080430360036823F08053036003681B01FCD4704700BF0368002B06DB036843F0004303600368DB02FCD5704700BF30B4036843F00073036003689B01FCD4BF
S385000167100368194A43F480539042036027D0174B98420FD003F5C04398420BD04FF0FF330021134A036130BC43618361816203630262704700F180021021402500231C460133AB4242F8044BFAD300F5086303EB8102002143F8041B9A42FBD1DEE7054A20218025EAE700BF004002400050024006003B00804002402DE9F0430468079ED4
S38500016790240540F1A580D0F8004CC4F30144E51C0124AC400834E4B24FF40075B5FBF4F5A408076807F07F07B94207D903689B0000F1A0804FF44070BDE8F0830768BF0006D5476BC7F303677F000737B942F1D907683F0507D5977B2FB1D0F8007C47F00047C0F8007CB1FBF5FC05FB1C1104FB01F4916804EBCC1CCCB20CF12007402CB5
S3850001681000EB870767D94FF4702856B34FF0000E31F003040DD00024A508A900083156F825502DBA7D509168043421F00305A542F2D88C4207F108050AD2264484F0030116F8019B05F8019091680134A142F5D8714506D281F003040131567B2E557145F8D1117900EB8C0000240129C0F880407C6044D0002955D17D68384C25F0FF5563
S3850001689025F4E0157D607D6804EA83432B437B6013680F2B48EA010841D0117B1C2B4FEA036308BF48F4801803F07063F9B143F0004343EA0808937B0BB148F08048D0F8801048EA0101C0F880100020BDE8F0830424202565E7224D15F804E026B3BEF1080F26D84FEA0E4808F4702890E743EA0808E0E7436B4FF44070BDE8F0837968BF
S3850001691001F060417960796823F060430B437B6013684FF400110F2B48EA0108BDD10020BDE8F0832146B3E74FEA0E4E0EF4702897E7AEF10905EDB2062D07D8094C4FEA0E4E0EF4702814F805E061E74FEA0E4E0EF470284FF0000E5AE700BF0000FC1F34A101002CA10100F0B40468260561D5D0F8006CC6F30146F41C0126A6400836C7
S38500016990F6B2B7084FF40075B5FBF6F4056805F07F05A94206D903689B0069D44FF44070F0BC70470568AD0006D5456BC5F303656D000735A942F1D9B1FBF4F504FB151407FB04F404EBC51404F12001157900EB810100EB8400012D4FF00004C0F880404C602AD08DB9D0F88050244C25F4C005C0F880504D6825F0FF5525F4E0154D6040
S38500016A104D6804EA83432B434B6013680F2B2CD0D0F8803023F07063C0F880301368D0F880201B0603F070631343C0F88030F0BC0020704704272024A8E7D0F8804044F40014C0F88040D0F8804024F48004C0F880404C6804F060444C604C6823F0604323434B6013680F2BD2D10020F0BC7047436BF0BC4FF44070704700BF0000FC1FE9
S38500016A90036870B41E055DD5D0F8003CC3F30143033301249C400834E5B2AB084FF40074B4FBF5F4B1FBF4F504FB151403FB04F404EBC51300EB8306D6F88040C4F30344082C03D9093CE4B2224D2C5D82F848400568AD000AD5456BC5F303656D000735A94203D84FF4407070BC7047D6F880101160203300EB83008B0226D443689B0CBB
S38500016B1034F00306536022D0002303F0FC0101F1080545592DBA04331144DBB2B3428D60F3D39C420BD9D91D114483F0030208320133DBB2825C01F8012F9C42F5D1002070BC704704232024ACE74368D8E73346E7E700BF2CA1010003681B0510B41BD5D0F8002CC2F30142D41C0122A2400832D2B24FF400749308B4FBF2F2B1FBF2F415
S38500016B9002FB141203FB02F303EBC41320335DF8044B50F82330704704232022EEE700BF194B984230B42BD003F58053984229D0164CA0420CBF10240024036813F4006302D0012030BC7047026842F000520260456B0A0602F0706225F070610A434FF0FF31426381646FF0604134B103F508720133A34240F82210F8D1002030BC70476A
S38500016C102024DAE71024D8E70040024000B0024003682DE9F0411C052FD5D0F8003CC3F30143033301269E4003681A0506F1080501F1FF342AD5D0F8003CC3F30143033301229A400832D2B293084FF40077B7FBF2F7B4FBF7F207FB124703FB07F303EBC213203300EB83032B4400F5207293420FD94FF44070BDE8F08103681A054FF0F9
S38500016C9010054FF0080601F1FF34D4D404232027DFE72B4B98424FD003F5805398424DD003F5C04398420CBF102300239942E0D8036804F07F0423F07F031C430460036813F0005E31D181B3083675464FF0010C4FF40077744603681B0529D5D0F8002CC2F3014203320CFA02F20832D2B24FEA9208B7FBF2F3BEFBF3F203FB12E308FB0B
S38500016D1003F303EBC213203300EB830240F8234002F108035460324403F8014B9342FBD10135EDB2A942AE46D5D80020BDE8F0814FF004082023DEE72023B7E71023B5E700400240F0B5446B00F1E003C4F30364032907D8DFE801F0743E0702036843F440730360F0BD056825F44075611C45F4007502EB0121056050785468002800F01A
S38500016D90B4801868640D40EA04601860507A002800F0A380D0681C68400900F47F0020431860507C002800F0908050691C68400B00F47F4020431860507E002879D0D0691C68C0F34750203220438A4243F8040BD2D1F0BD0768484E484D27F44077611C47F4807702EBC111076043F6F874107892F808C05778002814BF4FF00040002065
S38500016E10BCF1000F40F0804E14BF4FF4004C4FF0000C002F3ED0576805EA470777441F60577AD0684CF4804E4FB31F68C0F3CD307044103238438A4243F8040BD7D1F0BD06682D4D013426F4407602EB8414066011785078002915BF4FF040474FF080474FF0004600265168D0B1490021F0404108323944A24243F8041BE9D1F0BD1F6860
S38500016E9004EAC000604410323843914243F8040BADD1F0BD576806EAC74707441F60BFE705EAC14108323144944243F8041BCFD1F0BDD0691C68C0F3C700203220438A4243F8040B7FF458AFF0BD50691C68400100F47F40204318606EE7D0681C68400300F47F00204318605BE71868E40840EA046018604AE700BF0000F83F0000FF3FEA
S38500016F10036803F07F038B4203D24FF44072104670471F2909D8012303FA01F1836A3AB923EA01018162104670470022104670471943002281621046704700BF036823F080530360036823F0804303600368DB01FCD47047036843F080430360036843F0805303600368002B0CDB01220368D901FCD532B9036843F0004303600368DB0214
S38500016F90FCD57047036823F0004303600022EDE7034B026A1A421CBF0362036A704700BF06003B0070B4D0F88040C4F30344082C00F1880501F1080603D9093CE4B20D4B1C5D81F84840D0F880300B6013F4001FD0F8843008BF9B0C4B604CB10023990855F8212012BA04339C4246F82120F6D870BC70472CA10100042910D8DFE801F0E0
S38500017010152203271000436843F480534360436823F008034360036823F4003303607047036843F0004303607047036823F400030360436823F008034360436823F4805343607047436843F0080343607047036843F080430360036843F0805303600368002B0DDB01220368D901FCD5002AD6D1036843F0004303600368DB02FCD5704740
S38500017090036823F0004303600022ECE703681B0507D5D0F8003C23F4403343EA0141C0F8001C70470129F8B533D0344CC5B254F8254094F8916A002E40D094F85030032B19D0266894F8900A00F04AFF33689A0250D5C3F3034386F84830B3681BBAB360F3681BBAD4F8807AF36027B12846234600220821B84794F8513000222260002BAB
S3850001711034D194F85030032B1CBF002384F85030F8BD1A4C54F82030D3F8806A032283F85020C5B2002EC2D0284600220921B04754F8254094F8916A002EBED1104B53F82550324605212846FFF7DAFE324606212846FFF7D5FE324628460721FFF7D0FE94F8513000222260002BCAD0201DFAF753FCC6E77268920C7260AAE7E43B00200F
S3850001719078A10100A34B2DE9F04753F820402368002B81468846164605DB2046FFF7DAFE2046FFF799FA737A62685B0322F4005203F40053134363602046FFF779FA2046FFF7C8FE2046FFF793FA2368327A23F400636AB143F400632360236D43F00043236523681B0500F1C8800120BDE8F0872360236D23F000432365236813F4006396
S38500017210F3D1626B22F48052B17913430229636303D0236843F4003323607379002B40F0B48096F83430012B00F0B8801BB9236823F400432360F1792046FFF727FF31682046FFF7E5FC002840F09D80236813F4006FF36800F0AB803569276D7069B1699A026D0105F4787592B2F3692A436A4D00F01F0007F00047276505EA415102439F
S385000172901B04256D654F03F4F8100A430243336A716AB06A2A432265D4F8042CF56A9B024901C9B203F4F84317400B43326B5C49C4F8047C00F0070001EA0551034312040B4302F4E022D4F8041C13430B43C4F8043CB1792046FFF78FFEB379032B02D02046FFF72BFE4F4B13F9090010F1800F01D0FDF7ABFC4C4B4C4C13F90900FDF7DC
S38500017310A5FC4B4B13F90900FDF7A0FC14F9090010F1800F01D0FDF799FC4C4494F9030010F1800F01D0FDF791FC08F104073C4600254FF0540A0AE00135202D84F84D0044F8040C83F8500004F154044CD000212046FAF78DFB0AFB05830028ECD0002D3FF443AF542303FB0585043538465437FAF78AFBBD42F9D137E7626B4FF48053D6
S3850001739022F4805240E7BDE8F08731792046FFF707FC00283FF445AFBDE8F08723689A007FF523AF236843F40043236043E77169B0696568326903F00703090443EA006301F4E0210B434FF6F870F169D204054002F4601265608905134301F4400162680B431343636074E796F8343088F8913A96F835200F4B88F8902AC8F8800AC8F8CE
S38500017410840AC8F8880AC8F88C0A43F82980BDE8F08700BF78A101000000E07F188308C00000F03F94A1010088A101008CA1010084A10100E43B0020F0B587B006AD0826144645F8106D0C4F5268049200260096A67A57F8200027788DF80C702A46257A647A8DF816608DF814508DF81540FFF783F907B0F0BD00BF78A101002DE9F043F8
S385000174902C4D2D4C55F8205054F8207087B028460C4616469846FFF7F7F8844204D34FF4407007B0BDE8F083542303FB047393F850301BB1022007B0BDE8F0831F2C02D80123A3402B63F37A72680492542101FB0477002B4FF0020106AA14BF1C200C2087F850104FF000090E9987F8523042F8100D87F851900091707A31788DF81500A2
S38500017510307A8DF80C10B67A8DF814004346214628468DF81660FFF72FF910B187F85090BFE7214628460122FFF7EAFC07B0BDE8F08300BF78A10100E43B00202DE9F04184B004AC184E177856F82060506802900F2544F8105D3046157A8DF8047022468DF80C500F469846FFF7FEF9054618B1284604B0BDE8F08143462246394630463A
